{
  "_format": "hh-sol-artifact-1",
  "contractName": "Common",
  "sourceName": "contracts/Common.sol",
  "abi": [
    {
      "inputs": [],
      "stateMutability": "nonpayable",
      "type": "constructor"
    },
    {
      "inputs": [
        {
          "components": [
            {
              "internalType": "string",
              "name": "id",
              "type": "string"
            },
            {
              "components": [
                {
                  "internalType": "int32",
                  "name": "principal_type",
                  "type": "int32"
                },
                {
                  "internalType": "string",
                  "name": "value",
                  "type": "string"
                }
              ],
              "internalType": "struct Principal",
              "name": "principal",
              "type": "tuple"
            },
            {
              "internalType": "int32",
              "name": "resource_type",
              "type": "int32"
            },
            {
              "internalType": "string",
              "name": "resource_id",
              "type": "string"
            },
            {
              "components": [
                {
                  "internalType": "int32",
                  "name": "effect",
                  "type": "int32"
                },
                {
                  "internalType": "int32[]",
                  "name": "actions",
                  "type": "int32[]"
                },
                {
                  "internalType": "string[]",
                  "name": "resources",
                  "type": "string[]"
                },
                {
                  "components": [
                    {
                      "internalType": "int64",
                      "name": "_seconds",
                      "type": "int64"
                    },
                    {
                      "internalType": "int32",
                      "name": "nanos",
                      "type": "int32"
                    }
                  ],
                  "internalType": "struct Timestamp",
                  "name": "expiration_time",
                  "type": "tuple"
                },
                {
                  "components": [
                    {
                      "internalType": "uint64",
                      "name": "value",
                      "type": "uint64"
                    }
                  ],
                  "internalType": "struct UInt64Value",
                  "name": "limit_size",
                  "type": "tuple"
                }
              ],
              "internalType": "struct Statement[]",
              "name": "statements",
              "type": "tuple[]"
            },
            {
              "components": [
                {
                  "internalType": "int64",
                  "name": "_seconds",
                  "type": "int64"
                },
                {
                  "internalType": "int32",
                  "name": "nanos",
                  "type": "int32"
                }
              ],
              "internalType": "struct Timestamp",
              "name": "expiration_time",
              "type": "tuple"
            }
          ],
          "internalType": "struct Policy",
          "name": "policy",
          "type": "tuple"
        }
      ],
      "name": "encodePolicy",
      "outputs": [
        {
          "internalType": "bytes",
          "name": "",
          "type": "bytes"
        }
      ],
      "stateMutability": "pure",
      "type": "function"
    },
    {
      "inputs": [
        {
          "components": [
            {
              "internalType": "int32",
              "name": "principal_type",
              "type": "int32"
            },
            {
              "internalType": "string",
              "name": "value",
              "type": "string"
            }
          ],
          "internalType": "struct Principal",
          "name": "principal",
          "type": "tuple"
        }
      ],
      "name": "encodePrinciple",
      "outputs": [
        {
          "internalType": "bytes",
          "name": "",
          "type": "bytes"
        }
      ],
      "stateMutability": "pure",
      "type": "function"
    },
    {
      "inputs": [
        {
          "components": [
            {
              "internalType": "int32",
              "name": "effect",
              "type": "int32"
            },
            {
              "internalType": "int32[]",
              "name": "actions",
              "type": "int32[]"
            },
            {
              "internalType": "string[]",
              "name": "resources",
              "type": "string[]"
            },
            {
              "components": [
                {
                  "internalType": "int64",
                  "name": "_seconds",
                  "type": "int64"
                },
                {
                  "internalType": "int32",
                  "name": "nanos",
                  "type": "int32"
                }
              ],
              "internalType": "struct Timestamp",
              "name": "expiration_time",
              "type": "tuple"
            },
            {
              "components": [
                {
                  "internalType": "uint64",
                  "name": "value",
                  "type": "uint64"
                }
              ],
              "internalType": "struct UInt64Value",
              "name": "limit_size",
              "type": "tuple"
            }
          ],
          "internalType": "struct Statement",
          "name": "statement",
          "type": "tuple"
        }
      ],
      "name": "encodeStatement",
      "outputs": [
        {
          "internalType": "bytes",
          "name": "",
          "type": "bytes"
        }
      ],
      "stateMutability": "pure",
      "type": "function"
    }
  ],
  "bytecode": "0x608080604052346100165761228b908161001c8239f35b600080fdfe6080604052600436101561001257600080fd5b60003560e01c8063085dd606146101065780634941f54f146100ac5763f39c05641461003d57600080fd5b346100a75760207ffffffffffffffffffffffffffffffffffffffffffffffffffffffffffffffffc3601126100a75760043567ffffffffffffffff81116100a7576100976100926100a39236906004016111a8565b61145a565b60405191829182611410565b0390f35b600080fd5b346100a75760207ffffffffffffffffffffffffffffffffffffffffffffffffffffffffffffffffc3601126100a75760043567ffffffffffffffff81116100a7576100976101016100a3923690600401611244565b611a7a565b346100a7577ffffffffffffffffffffffffffffffffffffffffffffffffffffffffffffffffc6020813601126100a7576004359067ffffffffffffffff82116100a75760e09082360301126100a757610140604052806004013567ffffffffffffffff81116100a75761017f9060043691840101611153565b608052602481013567ffffffffffffffff81116100a7576101a690600436918401016111a8565b60a0526101b56044820161119a565b60c052606481013567ffffffffffffffff81116100a7576101dc9060043691840101611153565b60e052608481013567ffffffffffffffff81116100a757810190366023830112156100a757600482013591610210836111f5565b9061021e60405192836110d8565b8382526024602083019460051b820101903682116100a75760248101945b828610611041576101008490526102563660a4870161120d565b60a06080015260606102a1608051604051610270816110bc565b6000905280516020909101207fc5d2460186f7233c927e7db2dcc703c0e500b653ca82273b7bfad8045d85a4701490565b15610dac575b60a051805160030b610c41575b5060c05160030b610aab575b6102d5606060800151604051610270816110bc565b15610847575b6000905b61010051805183101561051c576102f9836102ff92611a66565b51611a7a565b91600191602a5b607f67ffffffffffffffff8216116104eb575061032c67ffffffffffffffff84166115ea565b91602a946000955b67ffffffffffffffff861667ffffffffffffffff881610156103b1576701ffffffffffffff817fff000000000000000000000000000000000000000000000000000000000000006080607f6103ab95161760f81b1660001a6103a067ffffffffffffffff8b1689611652565b5360071c1696611639565b95610334565b5091937fffffffffffffffffffffffffffffffffffffffffffffffffffffffffffffffff91955067ffffffffffffffff160167ffffffffffffffff81116104bc576104b6936104b09267ffffffffffffffff602093166104417f7f000000000000000000000000000000000000000000000000000000000000006104358389611652565b511660001a9187611652565b5361045263ffffffff82511661190b565b604051958361046a88955180928880890191016113ed565b840161047e825180938880850191016113ed565b01610491825180938780850191016113ed565b016104a4825180938680850191016113ed565b010380845201826110d8565b91611a39565b906102df565b7f4e487b7100000000000000000000000000000000000000000000000000000000600052601160045260246000fd5b67ffffffffffffffff6701ffffffffffffff60019260071c1694160167ffffffffffffffff81116104bc5792610306565b50610120515160070b61053a575b6100a39060405191829182611410565b600160085b607f67ffffffffffffffff821611610816575067ffffffffffffffff1690610566826115ea565b9160009060085b67ffffffffffffffff8316828110156105d857816701ffffffffffffff916105c77fff000000000000000000000000000000000000000000000000000000000000006080607f6105d297161760f81b1660001a9189611652565b5360071c1692611639565b9161056d565b50507fffffffffffffffffffffffffffffffffffffffffffffffffffffffffffffffff91500167ffffffffffffffff81116104bc5767ffffffffffffffff166106517f7f000000000000000000000000000000000000000000000000000000000000006106458386611652565b511660001a9184611652565b536106a9602061067060a0608001515167ffffffffffffffff1661190b565b93604051948161068987935180928680870191016113ed565b820161069d825180938680850191016113ed565b010380855201836110d8565b60019060325b607f67ffffffffffffffff8216116107e557506106d567ffffffffffffffff83166115ea565b906032936000945b67ffffffffffffffff851667ffffffffffffffff8716101561075a576701ffffffffffffff817fff000000000000000000000000000000000000000000000000000000000000006080607f61075495161760f81b1660001a61074967ffffffffffffffff8a1688611652565b5360071c1695611639565b946106dd565b5091927fffffffffffffffffffffffffffffffffffffffffffffffffffffffffffffffff91945067ffffffffffffffff160167ffffffffffffffff81116104bc576100a3936107de9267ffffffffffffffff602093166104417f7f000000000000000000000000000000000000000000000000000000000000006104358389611652565b905061052a565b67ffffffffffffffff6701ffffffffffffff60019260071c1693160167ffffffffffffffff81116104bc57916106af565b67ffffffffffffffff6701ffffffffffffff60019260071c1692160167ffffffffffffffff81116104bc579061053f565b600160225b607f67ffffffffffffffff821611610a7a575067ffffffffffffffff1690610873826115ea565b9160009060225b67ffffffffffffffff8316828110156108da57816701ffffffffffffff916105c77fff000000000000000000000000000000000000000000000000000000000000006080607f6108d497161760f81b1660001a9189611652565b9161087a565b50507fffffffffffffffffffffffffffffffffffffffffffffffffffffffffffffffff91500167ffffffffffffffff81116104bc5767ffffffffffffffff166109477f7f000000000000000000000000000000000000000000000000000000000000006106458386611652565b536060608001519161096367ffffffffffffffff84511661190b565b926109796109748251865190611a2c565b6115ea565b9160005b855167ffffffffffffffff8216908110156109d05790816109c57fff000000000000000000000000000000000000000000000000000000000000006104356109cb958b611652565b53611639565b61097d565b5050929060005b815167ffffffffffffffff821690811015610a3d5790816109c5610a2d7fff00000000000000000000000000000000000000000000000000000000000000610a22610a389688611652565b5116928a5190611a2c565b9160001a9187611652565b6109d7565b505050610a759293506020916040519482610a6187945180928780880191016113ed565b8301610491825180938780850191016113ed565b6102db565b67ffffffffffffffff6701ffffffffffffff60019260071c1692160167ffffffffffffffff81116104bc579061084c565b6001808060185b607f67ffffffffffffffff821611610c1057505067ffffffffffffffff1691610ada836115ea565b9260006018845b610b9e575b50507fffffffffffffffffffffffffffffffffffffffffffffffffffffffffffffffff9192500167ffffffffffffffff81116104bc57610b999167ffffffffffffffff60209216610b677f7f00000000000000000000000000000000000000000000000000000000000000610b5b8388611652565b511660001a9186611652565b5360c051610b819060030b67ffffffffffffffff1661190b565b6040519482610a6187945180928780880191016113ed565b6102c0565b67ffffffffffffffff821683811015610c0a57816701ffffffffffffff91610bf87fff000000000000000000000000000000000000000000000000000000000000006080607f610c0397161760f81b1660001a918a611652565b5360071c1691611639565b9084610ae1565b50610ae6565b6701ffffffffffffff67ffffffffffffffff9160071c1692160167ffffffffffffffff81116104bc57908290610ab2565b610c4a9061145a565b600191828060125b607f67ffffffffffffffff821611610d7b575050610c7967ffffffffffffffff82166115ea565b9360006012825b610d0a575b50505067ffffffffffffffff7fffffffffffffffffffffffffffffffffffffffffffffffffffffffffffffffff9116019067ffffffffffffffff82116104bc57610d049267ffffffffffffffff602093166104417f7f000000000000000000000000000000000000000000000000000000000000006104358389611652565b816102b4565b67ffffffffffffffff821667ffffffffffffffff8516811015610d7557816701ffffffffffffff91610bf87fff000000000000000000000000000000000000000000000000000000000000006080607f610d6e97161760f81b1660001a918b611652565b9082610c80565b50610c85565b6701ffffffffffffff67ffffffffffffffff9160071c1692160167ffffffffffffffff81116104bc57908490610c52565b506001600a5b607f67ffffffffffffffff8216116110105750610dd867ffffffffffffffff82166115ea565b906000600a5b67ffffffffffffffff831667ffffffffffffffff83161015610e50576701ffffffffffffff817fff000000000000000000000000000000000000000000000000000000000000006080607f610e4a95161760f81b1660001a610bf867ffffffffffffffff861688611652565b90610dde565b505067ffffffffffffffff7fffffffffffffffffffffffffffffffffffffffffffffffffffffffffffffffff91160167ffffffffffffffff81116104bc5767ffffffffffffffff16610ed27f7f00000000000000000000000000000000000000000000000000000000000000610ec68385611652565b511660001a9183611652565b5360805190610eeb67ffffffffffffffff83511661190b565b610efb6109748451835190611a2c565b9260005b825167ffffffffffffffff82161015610f6957807fff00000000000000000000000000000000000000000000000000000000000000610f4b67ffffffffffffffff610f64941686611652565b511660001a6109c567ffffffffffffffff831688611652565b610eff565b509160005b835167ffffffffffffffff821690811015610fd45790816109c5610fc47fff00000000000000000000000000000000000000000000000000000000000000610fb9610fcf968a611652565b511692875190611a2c565b9160001a9188611652565b610f6e565b505061100b9250602091506040519381610ff786935180928680870191016113ed565b82016104a4825180938680850191016113ed565b6102a7565b67ffffffffffffffff6701ffffffffffffff60019260071c1692160167ffffffffffffffff81116104bc5790610db2565b853567ffffffffffffffff81116100a757602091611066839260243691870101611244565b81520195019461023c565b7f4e487b7100000000000000000000000000000000000000000000000000000000600052604160045260246000fd5b6040810190811067ffffffffffffffff82111761107157604052565b6020810190811067ffffffffffffffff82111761107157604052565b90601f7fffffffffffffffffffffffffffffffffffffffffffffffffffffffffffffffe0910116810190811067ffffffffffffffff82111761107157604052565b67ffffffffffffffff811161107157601f017fffffffffffffffffffffffffffffffffffffffffffffffffffffffffffffffe01660200190565b81601f820112156100a75780359061116a82611119565b9261117860405194856110d8565b828452602083830101116100a757816000926020809301838601378301015290565b35908160030b82036100a757565b91906040838203126100a757604051906111c1826110a0565b81936111cc8161119a565b835260208101359167ffffffffffffffff83116100a7576020926111f09201611153565b910152565b67ffffffffffffffff81116110715760051b60200190565b91908260409103126100a757604051611225816110a0565b80928035908160070b82036100a75760206111f091819385520161119a565b91908281039260c084126100a757604080519060a082019267ffffffffffffffff9383811085821117611071578252829661127e8261119a565b8452602095868301358681116100a757830181601f820112156100a7578035906112a7826111f5565b916112b4875193846110d8565b808352898084019160051b830101918483116100a7578a809101915b8383106113d55750915050860152838301358681116100a757830181601f820112156100a7578035611301816111f5565b9161130e875193846110d8565b818352898084019260051b820101918483116100a757908a9594939291868201905b8382106113a257505050507fffffffffffffffffffffffffffffffffffffffffffffffffffffffffffffff60929161136f91878901526060860161120d565b606087015201126100a7578151948501858110858211176110715760a09252013591821682036100a75760809183520152565b908092939495969750358b81116100a7578c916113c488848094880101611153565b81520191018b969594939291611330565b81906113e08461119a565b8152019101908a906112d0565b60005b8381106114005750506000910152565b81810151838201526020016113f0565b7fffffffffffffffffffffffffffffffffffffffffffffffffffffffffffffffe0601f6040936020845261145381518092816020880152602088880191016113ed565b0116010190565b606090805160030b6115a5575b60208091019061147e8251604051610270816110bc565b1561148857505090565b611494939192936117eb565b92519367ffffffffffffffff6114ac8187511661190b565b956114bd6109748251895190611a2c565b9460005b8851898583169182101561151357906109c57fff000000000000000000000000000000000000000000000000000000000000006115028361150e9695611652565b511660001a918a611652565b6114c1565b50505091939590929560005b84518682169081101561157d5790816109c561156d7fff00000000000000000000000000000000000000000000000000000000000000611562611578968b611652565b5116928d5190611a2c565b9160001a918a611652565b61151f565b5050935094915094506115a2926040519482610a6187945180928780880191016113ed565b90565b90506115af611692565b6115e460206115cb67ffffffffffffffff855160030b1661190b565b926040519381610ff786935180928680870191016113ed565b90611467565b906115f482611119565b61160160405191826110d8565b8281527fffffffffffffffffffffffffffffffffffffffffffffffffffffffffffffffe061162f8294611119565b0190602036910137565b67ffffffffffffffff8091169081146104bc5760010190565b908151811015611663570160200190565b7f4e487b7100000000000000000000000000000000000000000000000000000000600052603260045260246000fd5b6001806008815b61177f575b5067ffffffffffffffff8091166116b4816115ea565b928060086000925b611720575b5050507fffffffffffffffffffffffffffffffffffffffffffffffffffffffffffffffff018181116104bc571661171c7f7f00000000000000000000000000000000000000000000000000000000000000610ec68385611652565b5390565b8483168481101561177957816701ffffffffffffff916105c77fff000000000000000000000000000000000000000000000000000000000000006080607f61177297161760f81b1660001a918a611652565b91816116bc565b506116c1565b908267ffffffffffffffff92607f84821611156117e3576701ffffffffffffff849160071c169216019182116117b55782611699565b602460007f4e487b710000000000000000000000000000000000000000000000000000000081526011600452fd5b50509061169e565b6001806012815b6118cd575b5067ffffffffffffffff80911661180d816115ea565b928060126000925b611874575050507fffffffffffffffffffffffffffffffffffffffffffffffffffffffffffffffff018181116104bc571661171c7f7f00000000000000000000000000000000000000000000000000000000000000610ec68385611652565b8483168481101561177957816701ffffffffffffff916105c77fff000000000000000000000000000000000000000000000000000000000000006080607f6118c697161760f81b1660001a918a611652565b9181611815565b908267ffffffffffffffff92607f8482161115611903576701ffffffffffffff849160071c169216019182116117b557826117f2565b5050906117f7565b60018082815b6119eb575b5067ffffffffffffffff809216908061192e836115ea565b946000925b611992575050507fffffffffffffffffffffffffffffffffffffffffffffffffffffffffffffffff018181116104bc571661171c7f7f00000000000000000000000000000000000000000000000000000000000000610ec68385611652565b8483168481101561177957816701ffffffffffffff916105c77fff000000000000000000000000000000000000000000000000000000000000006080607f6119e497161760f81b1660001a918a611652565b9181611933565b909167ffffffffffffffff91607f8382161115611a2457826701ffffffffffffff859260071c169216019182116117b557829192611911565b509190611916565b919082018092116104bc57565b7fffffffffffffffffffffffffffffffffffffffffffffffffffffffffffffffff81146104bc5760010190565b80518210156116635760209160051b010190565b6060918151600390810b61224e575b611ab690611a956117eb565b60409384519384926020958691826106898184019c8d8151938492016113ed565b6000968260605b8689015180518b1015611b155790611b0988611af167ffffffffffffffff611ae88f611b0f97611a66565b518b0b1661190b565b928b519381610ff786935180928680870191016113ed565b99611a39565b98611abd565b5090945085979391959298508051958661221a575b5050505092949091506000945b80840191825151871015611d8b576001601a5b67ffffffffffffffff90607f8282161115611b7f5760071c6701ffffffffffffff169181166001019081116104bc5790611b4a565b50509094969195929567ffffffffffffffff80921694611b9e866115ea565b96600090601a5b85831689811015611bfd57818b6105c76701ffffffffffffff937fff000000000000000000000000000000000000000000000000000000000000006080607f611bf798161760f81b1660001a92611652565b91611ba5565b5050967fffffffffffffffffffffffffffffffffffffffffffffffffffffffffffffffff91509997989194929599018381116104bc57611c7c9183918516611c757f7f00000000000000000000000000000000000000000000000000000000000000611c69838e611652565b511660001a918c611652565b5351611a66565b5190611c8a8383511661190b565b95611c9b6109748451895190611a2c565b9760005b885186821690811015611cf05790816109c57fff00000000000000000000000000000000000000000000000000000000000000611cdf611ceb958e611652565b511660001a918d611652565b611c9f565b505099919395999892949860005b865188821690811015611d515790816109c5611d417fff00000000000000000000000000000000000000000000000000000000000000611562611d4c968d611652565b9160001a918d611652565b611cfe565b505095509896611d7d92939650611d83945097819888519482610a6187945180928780880191016113ed565b92611a39565b949092611b37565b9550929050929092606081019081515191600792830b612085575b5060808091019367ffffffffffffffff8086515116611dc9575b50505050505090565b94969395929480600160085b607f8382161161206657501691611deb836115ea565b9560089960009a5b848c1686811015611e5457816701ffffffffffffff91611e447fff000000000000000000000000000000000000000000000000000000000000008b607f611e4e97161760f81b1660001a918d611652565b538b1c169b611639565b9a611df3565b50509298919695909399507fffffffffffffffffffffffffffffffffffffffffffffffffffffffffffffffff809a018981116104bc578980611edb929c99989c16948c611ed27f7f000000000000000000000000000000000000000000000000000000000000009788611ec78285611652565b511660001a92611652565b5351511661190b565b99611f1983885180809e83611ef981840197888151938492016113ed565b8201611f0d825180938780850191016113ed565b0103809152018c6110d8565b6001602a5b607f8c82161161203f57509a8a809c1697611f38896115ea565b99602a60009e8f5b168b811015611fa7576701ffffffffffffff8f9493928f8f611f948f957fff00000000000000000000000000000000000000000000000000000000000000611f9d97607f87161760f81b1660001a92611652565b531c169f611639565b9e9091928f611f40565b5050939892975093989a949950949a5001968288116104bc57611fd76104a493612034991691611502838c611652565b53611fe863ffffffff84511661190b565b90519785611fff8a975180928a808b0191016113ed565b8601612013825180938a80850191016113ed565b01612026825180938980850191016113ed565b0191518093868401906113ed565b388080808080611dc0565b989b97988a1c6701ffffffffffffff16908b166001018b81116104bc57909b98979b611f1e565b881c6701ffffffffffffff1691166001018281116104bc578291611dd5565b909461208f611692565b915151906120a767ffffffffffffffff92831661190b565b906120c4868851809482610689818401998a8151938492016113ed565b60019383858060225b607f848216116121f9575050166120e3816115ea565b958060226000925b612190575b5050507fffffffffffffffffffffffffffffffffffffffffffffffffffffffffffffffff01928484116104bc576121899488941661215e7f7f00000000000000000000000000000000000000000000000000000000000000612152838a611652565b511660001a9188611652565b536104a461217263ffffffff83511661190b565b8a519785611fff8a975180928a808b0191016113ed565b9338611da6565b878316848110156121f357816701ffffffffffffff916121e27fff000000000000000000000000000000000000000000000000000000000000006080607f6121ec97161760f81b1660001a918d611652565b538b1c1692611639565b91816120eb565b506120f0565b891c6701ffffffffffffff169291909116018581116104bc578686926120cd565b610a61955061223263ffffffff61224496981661190b565b908851968794518092878701906113ed565b8184388080611b2a565b9250611ab661225b611692565b61227660206115cb67ffffffffffffffff8751890b1661190b565b939050611a8956fea164736f6c6343000814000a",
  "linkReferences": {},
  "deployedLinkReferences": {}
}