{
  "_format": "hh-sol-artifact-1",
  "contractName": "Passport",
  "sourceName": "contracts/Passport.sol",
  "abi": [
    {
      "anonymous": false,
      "inputs": [
        {
          "indexed": false,
          "internalType": "uint8",
          "name": "version",
          "type": "uint8"
        }
      ],
      "name": "Initialized",
      "type": "event"
    },
    {
      "anonymous": false,
      "inputs": [
        {
          "indexed": true,
          "internalType": "address",
          "name": "previousOwner",
          "type": "address"
        },
        {
          "indexed": true,
          "internalType": "address",
          "name": "newOwner",
          "type": "address"
        }
      ],
      "name": "OwnershipTransferred",
      "type": "event"
    },
    {
      "inputs": [],
      "name": "bank",
      "outputs": [
        {
          "internalType": "uint256",
          "name": "",
          "type": "uint256"
        }
      ],
      "stateMutability": "view",
      "type": "function"
    },
    {
      "inputs": [],
      "name": "bucketRegistry",
      "outputs": [
        {
          "internalType": "contract IBucketRegistry",
          "name": "",
          "type": "address"
        }
      ],
      "stateMutability": "view",
      "type": "function"
    },
    {
      "inputs": [],
      "name": "buyBucketManager",
      "outputs": [],
      "stateMutability": "payable",
      "type": "function"
    },
    {
      "inputs": [],
      "name": "createBucketFee",
      "outputs": [
        {
          "internalType": "uint256",
          "name": "",
          "type": "uint256"
        }
      ],
      "stateMutability": "view",
      "type": "function"
    },
    {
      "inputs": [
        {
          "internalType": "uint256",
          "name": "_createBucketFee",
          "type": "uint256"
        },
        {
          "internalType": "contract IBucketRegistry",
          "name": "_bucketRegistry",
          "type": "address"
        }
      ],
      "name": "initialize",
      "outputs": [],
      "stateMutability": "nonpayable",
      "type": "function"
    },
    {
      "inputs": [],
      "name": "owner",
      "outputs": [
        {
          "internalType": "address",
          "name": "",
          "type": "address"
        }
      ],
      "stateMutability": "view",
      "type": "function"
    },
    {
      "inputs": [],
      "name": "renounceOwnership",
      "outputs": [],
      "stateMutability": "nonpayable",
      "type": "function"
    },
    {
      "inputs": [
        {
          "internalType": "uint256",
          "name": "_createBucketFee",
          "type": "uint256"
        }
      ],
      "name": "setBucketFee",
      "outputs": [],
      "stateMutability": "nonpayable",
      "type": "function"
    },
    {
      "inputs": [
        {
          "internalType": "address",
          "name": "newOwner",
          "type": "address"
        }
      ],
      "name": "transferOwnership",
      "outputs": [],
      "stateMutability": "nonpayable",
      "type": "function"
    },
    {
      "inputs": [
        {
          "internalType": "uint256",
          "name": "amount",
          "type": "uint256"
        },
        {
          "internalType": "address",
          "name": "to",
          "type": "address"
        }
      ],
      "name": "withdraw",
      "outputs": [],
      "stateMutability": "nonpayable",
      "type": "function"
    }
  ],
  "bytecode": "0x6080806040523461001657610d10908161001c8239f35b600080fdfe6040608081526004908136101561001557600080fd5b600091823560e01c8062f714ce146108bf5780633437778d1461088257806351c4c05e1461082f5780636e0e1193146107ef578063715018a61461074e57806376cdb03b146107115780638da5cb5b146106be578063b0a46776146103a6578063da35a26f146101845763f2fde38b1461008e57600080fd5b346101805760207ffffffffffffffffffffffffffffffffffffffffffffffffffffffffffffffffc3601126101805780359173ffffffffffffffffffffffffffffffffffffffff831680840361017b576100e6610980565b156100f857836100f5846109ff565b80f35b90602060849251917f08c379a0000000000000000000000000000000000000000000000000000000008352820152602660248201527f4f776e61626c653a206e6577206f776e657220697320746865207a65726f206160448201527f64647265737300000000000000000000000000000000000000000000000000006064820152fd5b600080fd5b8280fd5b503461018057817ffffffffffffffffffffffffffffffffffffffffffffffffffffffffffffffffc3601126101805760243573ffffffffffffffffffffffffffffffffffffffff81168091036103a25783549160ff8360081c161592838094610395575b801561037e575b156102fb578360017fffffffffffffffffffffffffffffffffffffffffffffffffffffffffffffff0083161787556102cd575b5061023c60ff865460081c1661023781610a6c565b610a6c565b610245336109ff565b356065557fffffffffffffffffffffffff0000000000000000000000000000000000000000606754161760675561027a575080f35b60207f7f26b83ff96e1f2b6a682f133852f6798a09c465da95921460cefb3847402498917fffffffffffffffffffffffffffffffffffffffffffffffffffffffffffff00ff84541684555160018152a180f35b7fffffffffffffffffffffffffffffffffffffffffffffffffffffffffffff00001661010117855538610222565b60848260208751917f08c379a0000000000000000000000000000000000000000000000000000000008352820152602e60248201527f496e697469616c697a61626c653a20636f6e747261637420697320616c72656160448201527f647920696e697469616c697a65640000000000000000000000000000000000006064820152fd5b50303b1580156101ef5750600160ff8216146101ef565b50600160ff8216106101e8565b8380fd5b509190817ffffffffffffffffffffffffffffffffffffffffffffffffffffffffffffffffc3601126106ba57606554341061065e576066543481018091116106325760665573ffffffffffffffffffffffffffffffffffffffff928360675416938251947f7282ed1400000000000000000000000000000000000000000000000000000000865230838701526020958681602481855afa908115610575578691610601575b501561057f579460448186978651928380927fc2cfb22700000000000000000000000000000000000000000000000000000000825230898301528a60248301525afa91821561057557869261053a575b505016803b1561053557839060248451809681937ff2fde38b00000000000000000000000000000000000000000000000000000000835233878401525af1801561052b576104e7578380f35b67ffffffffffffffff83116104ff5750523880808380f35b8360416024927f4e487b7100000000000000000000000000000000000000000000000000000000835252fd5b82513d86823e3d90fd5b505050fd5b90809250813d831161056e575b6105518183610af7565b8101031261056a5751818116810361056a57388061049b565b8480fd5b503d610547565b85513d88823e3d90fd5b608483878651917f08c379a0000000000000000000000000000000000000000000000000000000008352820152603060248201527f6275636b657220686173206265656e20736f6c64206f75742c20747279206c6160448201527f74657220616761696e20706c65617365000000000000000000000000000000006064820152fd5b90508681813d831161062b575b6106188183610af7565b8101031261062757513861044b565b8580fd5b503d61060e565b6024836011867f4e487b7100000000000000000000000000000000000000000000000000000000835252fd5b517f08c379a0000000000000000000000000000000000000000000000000000000008152602081840152601160248201527f696e73756666696369656e742066756e640000000000000000000000000000006044820152606490fd5b5080fd5b5050346106ba57817ffffffffffffffffffffffffffffffffffffffffffffffffffffffffffffffffc3601126106ba5760209073ffffffffffffffffffffffffffffffffffffffff603354169051908152f35b5050346106ba57817ffffffffffffffffffffffffffffffffffffffffffffffffffffffffffffffffc3601126106ba576020906066549051908152f35b83346107ec57807ffffffffffffffffffffffffffffffffffffffffffffffffffffffffffffffffc3601126107ec57610785610980565b8073ffffffffffffffffffffffffffffffffffffffff6033547fffffffffffffffffffffffff00000000000000000000000000000000000000008116603355167f8be0079c531659141344cd1fd0a4f28419497f9722a3daafe3b4186f6b6457e08280a380f35b80fd5b8382346106ba5760207ffffffffffffffffffffffffffffffffffffffffffffffffffffffffffffffffc3601126106ba57610828610980565b3560655580f35b5050346106ba57817ffffffffffffffffffffffffffffffffffffffffffffffffffffffffffffffffc3601126106ba5760209073ffffffffffffffffffffffffffffffffffffffff606754169051908152f35b5050346106ba57817ffffffffffffffffffffffffffffffffffffffffffffffffffffffffffffffffc3601126106ba576020906065549051908152f35b509034610180577ffffffffffffffffffffffffffffffffffffffffffffffffffffffffffffffffc3601126106ba5780359060243573ffffffffffffffffffffffffffffffffffffffff81168091036103a25761091a610980565b821561096a578261092a91610b67565b60665491820391821161093e575060665580f35b8260116024927f4e487b7100000000000000000000000000000000000000000000000000000000835252fd5b60665461097993509150610b67565b8060665580f35b73ffffffffffffffffffffffffffffffffffffffff6033541633036109a157565b60646040517f08c379a000000000000000000000000000000000000000000000000000000000815260206004820152602060248201527f4f776e61626c653a2063616c6c6572206973206e6f7420746865206f776e65726044820152fd5b6033549073ffffffffffffffffffffffffffffffffffffffff80911691827fffffffffffffffffffffffff0000000000000000000000000000000000000000821617603355167f8be0079c531659141344cd1fd0a4f28419497f9722a3daafe3b4186f6b6457e0600080a3565b15610a7357565b60846040517f08c379a000000000000000000000000000000000000000000000000000000000815260206004820152602b60248201527f496e697469616c697a61626c653a20636f6e7472616374206973206e6f74206960448201527f6e697469616c697a696e670000000000000000000000000000000000000000006064820152fd5b90601f7fffffffffffffffffffffffffffffffffffffffffffffffffffffffffffffffe0910116810190811067ffffffffffffffff821117610b3857604052565b7f4e487b7100000000000000000000000000000000000000000000000000000000600052604160045260246000fd5b814710610ca55773ffffffffffffffffffffffffffffffffffffffff90600080809481948294165af1903d15610c9f573d9067ffffffffffffffff8211610c725760405191610bde60207fffffffffffffffffffffffffffffffffffffffffffffffffffffffffffffffe0601f8401160184610af7565b825260203d92013e5b15610bee57565b60846040517f08c379a000000000000000000000000000000000000000000000000000000000815260206004820152603a60248201527f416464726573733a20756e61626c6520746f2073656e642076616c75652c207260448201527f6563697069656e74206d617920686176652072657665727465640000000000006064820152fd5b807f4e487b7100000000000000000000000000000000000000000000000000000000602492526041600452fd5b50610be7565b60646040517f08c379a000000000000000000000000000000000000000000000000000000000815260206004820152601d60248201527f416464726573733a20696e73756666696369656e742062616c616e63650000006044820152fdfea164736f6c6343000814000a",
  "linkReferences": {},
  "deployedLinkReferences": {}
}