{
  "_format": "hh-sol-artifact-1",
  "contractName": "BucketRegistry",
  "sourceName": "contracts/BucketRegistry.sol",
  "abi": [
    {
      "anonymous": false,
      "inputs": [
        {
          "indexed": true,
          "internalType": "address",
          "name": "manager",
          "type": "address"
        },
        {
          "indexed": true,
          "internalType": "address",
          "name": "new_controller",
          "type": "address"
        }
      ],
      "name": "ChangeContorller",
      "type": "event"
    },
    {
      "anonymous": false,
      "inputs": [
        {
          "indexed": true,
          "internalType": "address",
          "name": "manager",
          "type": "address"
        },
        {
          "indexed": false,
          "internalType": "string",
          "name": "name",
          "type": "string"
        },
        {
          "indexed": false,
          "internalType": "uint256",
          "name": "id",
          "type": "uint256"
        }
      ],
      "name": "CreateBucket",
      "type": "event"
    },
    {
      "anonymous": false,
      "inputs": [
        {
          "indexed": false,
          "internalType": "uint8",
          "name": "version",
          "type": "uint8"
        }
      ],
      "name": "Initialized",
      "type": "event"
    },
    {
      "anonymous": false,
      "inputs": [
        {
          "indexed": true,
          "internalType": "bytes32",
          "name": "role",
          "type": "bytes32"
        },
        {
          "indexed": true,
          "internalType": "bytes32",
          "name": "previousAdminRole",
          "type": "bytes32"
        },
        {
          "indexed": true,
          "internalType": "bytes32",
          "name": "newAdminRole",
          "type": "bytes32"
        }
      ],
      "name": "RoleAdminChanged",
      "type": "event"
    },
    {
      "anonymous": false,
      "inputs": [
        {
          "indexed": true,
          "internalType": "bytes32",
          "name": "role",
          "type": "bytes32"
        },
        {
          "indexed": true,
          "internalType": "address",
          "name": "account",
          "type": "address"
        },
        {
          "indexed": true,
          "internalType": "address",
          "name": "sender",
          "type": "address"
        }
      ],
      "name": "RoleGranted",
      "type": "event"
    },
    {
      "anonymous": false,
      "inputs": [
        {
          "indexed": true,
          "internalType": "bytes32",
          "name": "role",
          "type": "bytes32"
        },
        {
          "indexed": true,
          "internalType": "address",
          "name": "account",
          "type": "address"
        },
        {
          "indexed": true,
          "internalType": "address",
          "name": "sender",
          "type": "address"
        }
      ],
      "name": "RoleRevoked",
      "type": "event"
    },
    {
      "inputs": [],
      "name": "DEFAULT_ADMIN_ROLE",
      "outputs": [
        {
          "internalType": "bytes32",
          "name": "",
          "type": "bytes32"
        }
      ],
      "stateMutability": "view",
      "type": "function"
    },
    {
      "inputs": [],
      "name": "OPERATOR_ROLE",
      "outputs": [
        {
          "internalType": "bytes32",
          "name": "",
          "type": "bytes32"
        }
      ],
      "stateMutability": "view",
      "type": "function"
    },
    {
      "inputs": [
        {
          "internalType": "address",
          "name": "bucketManager",
          "type": "address"
        }
      ],
      "name": "addBucketManager",
      "outputs": [],
      "stateMutability": "nonpayable",
      "type": "function"
    },
    {
      "inputs": [],
      "name": "bucketFactory",
      "outputs": [
        {
          "internalType": "address",
          "name": "",
          "type": "address"
        }
      ],
      "stateMutability": "view",
      "type": "function"
    },
    {
      "inputs": [
        {
          "internalType": "string",
          "name": "",
          "type": "string"
        }
      ],
      "name": "bucketsNames",
      "outputs": [
        {
          "internalType": "uint256",
          "name": "",
          "type": "uint256"
        }
      ],
      "stateMutability": "view",
      "type": "function"
    },
    {
      "inputs": [
        {
          "internalType": "address",
          "name": "controller",
          "type": "address"
        },
        {
          "internalType": "address",
          "name": "manager",
          "type": "address"
        }
      ],
      "name": "controlled",
      "outputs": [
        {
          "internalType": "bool",
          "name": "",
          "type": "bool"
        }
      ],
      "stateMutability": "view",
      "type": "function"
    },
    {
      "inputs": [
        {
          "internalType": "address",
          "name": "controller",
          "type": "address"
        }
      ],
      "name": "controlledManagerAmount",
      "outputs": [
        {
          "internalType": "uint256",
          "name": "",
          "type": "uint256"
        }
      ],
      "stateMutability": "view",
      "type": "function"
    },
    {
      "inputs": [
        {
          "internalType": "string",
          "name": "bucketName",
          "type": "string"
        }
      ],
      "name": "existBucketName",
      "outputs": [
        {
          "internalType": "bool",
          "name": "",
          "type": "bool"
        }
      ],
      "stateMutability": "view",
      "type": "function"
    },
    {
      "inputs": [
        {
          "internalType": "address",
          "name": "controller",
          "type": "address"
        },
        {
          "internalType": "uint256",
          "name": "index",
          "type": "uint256"
        }
      ],
      "name": "getBucketManagerAt",
      "outputs": [
        {
          "internalType": "address",
          "name": "",
          "type": "address"
        }
      ],
      "stateMutability": "view",
      "type": "function"
    },
    {
      "inputs": [
        {
          "internalType": "address",
          "name": "controller",
          "type": "address"
        }
      ],
      "name": "getBucketManagers",
      "outputs": [
        {
          "internalType": "address[]",
          "name": "",
          "type": "address[]"
        }
      ],
      "stateMutability": "view",
      "type": "function"
    },
    {
      "inputs": [
        {
          "internalType": "uint256",
          "name": "index",
          "type": "uint256"
        }
      ],
      "name": "getRegisteredManagerAt",
      "outputs": [
        {
          "internalType": "address",
          "name": "",
          "type": "address"
        }
      ],
      "stateMutability": "view",
      "type": "function"
    },
    {
      "inputs": [],
      "name": "getRegisteredManagers",
      "outputs": [
        {
          "internalType": "address[]",
          "name": "",
          "type": "address[]"
        }
      ],
      "stateMutability": "view",
      "type": "function"
    },
    {
      "inputs": [
        {
          "internalType": "bytes32",
          "name": "role",
          "type": "bytes32"
        }
      ],
      "name": "getRoleAdmin",
      "outputs": [
        {
          "internalType": "bytes32",
          "name": "",
          "type": "bytes32"
        }
      ],
      "stateMutability": "view",
      "type": "function"
    },
    {
      "inputs": [
        {
          "internalType": "bytes32",
          "name": "role",
          "type": "bytes32"
        },
        {
          "internalType": "address",
          "name": "account",
          "type": "address"
        }
      ],
      "name": "grantRole",
      "outputs": [],
      "stateMutability": "nonpayable",
      "type": "function"
    },
    {
      "inputs": [
        {
          "internalType": "bytes32",
          "name": "role",
          "type": "bytes32"
        },
        {
          "internalType": "address",
          "name": "account",
          "type": "address"
        }
      ],
      "name": "hasRole",
      "outputs": [
        {
          "internalType": "bool",
          "name": "",
          "type": "bool"
        }
      ],
      "stateMutability": "view",
      "type": "function"
    },
    {
      "inputs": [],
      "name": "initialize",
      "outputs": [],
      "stateMutability": "nonpayable",
      "type": "function"
    },
    {
      "inputs": [
        {
          "internalType": "address",
          "name": "manager",
          "type": "address"
        }
      ],
      "name": "registered",
      "outputs": [
        {
          "internalType": "bool",
          "name": "",
          "type": "bool"
        }
      ],
      "stateMutability": "view",
      "type": "function"
    },
    {
      "inputs": [],
      "name": "registeredManagerAmount",
      "outputs": [
        {
          "internalType": "uint256",
          "name": "",
          "type": "uint256"
        }
      ],
      "stateMutability": "view",
      "type": "function"
    },
    {
      "inputs": [
        {
          "internalType": "bytes32",
          "name": "role",
          "type": "bytes32"
        },
        {
          "internalType": "address",
          "name": "account",
          "type": "address"
        }
      ],
      "name": "renounceRole",
      "outputs": [],
      "stateMutability": "nonpayable",
      "type": "function"
    },
    {
      "inputs": [
        {
          "internalType": "bytes32",
          "name": "role",
          "type": "bytes32"
        },
        {
          "internalType": "address",
          "name": "account",
          "type": "address"
        }
      ],
      "name": "revokeRole",
      "outputs": [],
      "stateMutability": "nonpayable",
      "type": "function"
    },
    {
      "inputs": [
        {
          "internalType": "address",
          "name": "newBucketFactory",
          "type": "address"
        }
      ],
      "name": "setBucketFactory",
      "outputs": [],
      "stateMutability": "nonpayable",
      "type": "function"
    },
    {
      "inputs": [
        {
          "internalType": "string",
          "name": "bucketName",
          "type": "string"
        },
        {
          "internalType": "uint256",
          "name": "bucketId",
          "type": "uint256"
        }
      ],
      "name": "setBucketName",
      "outputs": [],
      "stateMutability": "nonpayable",
      "type": "function"
    },
    {
      "inputs": [
        {
          "internalType": "bytes4",
          "name": "interfaceId",
          "type": "bytes4"
        }
      ],
      "name": "supportsInterface",
      "outputs": [
        {
          "internalType": "bool",
          "name": "",
          "type": "bool"
        }
      ],
      "stateMutability": "view",
      "type": "function"
    },
    {
      "inputs": [
        {
          "internalType": "address",
          "name": "preController",
          "type": "address"
        },
        {
          "internalType": "address",
          "name": "newController",
          "type": "address"
        }
      ],
      "name": "updateController",
      "outputs": [],
      "stateMutability": "nonpayable",
      "type": "function"
    }
  ],
  "bytecode": "0x6080806040523461001657611f3e908161001c8239f35b600080fdfe608060408181526004918236101561001657600080fd5b600092833560e01c91826301ffc9a71461144c5750816319733a63146113b75781631b336d771461137b578163248a9ca3146113335781632f2ff15d1461123f57816336568abe1461115a57816346e3c2ea146110ad5781634c8e708e146110445781635f436da214610f535781637282ed1414610ef157816372d99ce914610e695781638129fc1c14610c2757816391d1485414610bb6578163972c06bc14610a09578163986fe9bd146109b657816399c561d914610907578163a217fddf146108ce578163ae7c86d51461084e578163b2dd5c07146107ea578163c27bcafd14610699578163c2cfb22714610623578163d547741f146105c7578163e602147d14610188575063f5b541a61461012d57600080fd5b3461018457817ffffffffffffffffffffffffffffffffffffffffffffffffffffffffffffffffc36011261018457602090517f97667070c54ef182b0f5858b034beac1b6f3089aa2d3188bb1e8929f4fa9b9298152f35b5080fd5b9050346105c357602090817ffffffffffffffffffffffffffffffffffffffffffffffffffffffffffffffffc3601126105bf576101c3611581565b92848052600191828452818620338752845260ff828720541615610353575073ffffffffffffffffffffffffffffffffffffffff928360065416937f97667070c54ef182b0f5858b034beac1b6f3089aa2d3188bb1e8929f4fa9b92994858852848352838820818952835260ff84892054166102ef575b50848752838252828720951694858752815260ff828720541615610287575b85857fffffffffffffffffffffffff0000000000000000000000000000000000000000600654161760065580f35b83865282815281862090858752528420907fffffffffffffffffffffffffffffffffffffffffffffffffffffffffffffff008254161790558133917f2f8788117e7eff1d82e926ec794901d17c78024a50270940304540a733656f0d8580a438808080610259565b85885284835283882081895283528388207fffffffffffffffffffffffffffffffffffffffffffffffffffffffffffffff0081541690553390867ff6391f5c32d9c69d2a47ea670b442974b53935d1edc7fd64eb21e047a839171b8a80a43861023a565b918561035e33611a4f565b918184519161036c836115a4565b60428352878301936060368637835115610593576030855383518210156105935790607860218501536041915b8183116104cb575050506104705760486104299385936104389361046c97519687937f416363657373436f6e74726f6c3a206163636f756e74200000000000000000008c8601526103f48c82519283916037890191016116a5565b8401917f206973206d697373696e6720726f6c65200000000000000000000000000000006037840152518093868401906116a5565b010360288101855201836115ef565b519384937f08c379a0000000000000000000000000000000000000000000000000000000008552840152602483019061192a565b0390fd5b60648587808751927f08c379a000000000000000000000000000000000000000000000000000000000845283015260248201527f537472696e67733a20686578206c656e67746820696e73756666696369656e746044820152fd5b909192600f81166010811015610567577f3031323334353637383961626364656600000000000000000000000000000000901a6105088587611a0f565b53881c92801561053b577fffffffffffffffffffffffffffffffffffffffffffffffffffffffffffffffff019190610399565b60248260118b7f4e487b7100000000000000000000000000000000000000000000000000000000835252fd5b60248360328c7f4e487b7100000000000000000000000000000000000000000000000000000000835252fd5b806032897f4e487b71000000000000000000000000000000000000000000000000000000006024945252fd5b8380fd5b8280fd5b919050346105c357807ffffffffffffffffffffffffffffffffffffffffffffffffffffffffffffffffc3601126105c357610620913561061b600161060a611559565b9383875281602052862001546116c8565b61196d565b80f35b50503461018457807ffffffffffffffffffffffffffffffffffffffffffffffffffffffffffffffffc3601126101845760209161068a73ffffffffffffffffffffffffffffffffffffffff9182610678611581565b16815260028552836024359120611bd5565b92905490519260031b1c168152f35b8391503461018457827ffffffffffffffffffffffffffffffffffffffffffffffffffffffffffffffffc36011261018457803567ffffffffffffffff81116105c3576106e89036908301611630565b9260243533845260209260058452610704838620541515611d4d565b8251908651918581818a019461071b8183886116a5565b810160038152030190205461078e5750839495826107687fbb4d54d856ca3b0594f47607696192da7ff9d5f3b4a50d5ee94b87240e5b1fd9966107819487518093819287519283916116a5565b810160038152030190205583519380855284019061192a565b938201528033930390a280f35b606490858551917f08c379a0000000000000000000000000000000000000000000000000000000008352820152601e60248201527f546865206275636b6574206e616d6520686173207265676973746572656400006044820152fd5b5050346101845760207ffffffffffffffffffffffffffffffffffffffffffffffffffffffffffffffffc360112610184578060209273ffffffffffffffffffffffffffffffffffffffff61083c611581565b16815260058452205415159051908152f35b8284346108cb5760207ffffffffffffffffffffffffffffffffffffffffffffffffffffffffffffffffc3601126108cb5782359067ffffffffffffffff82116108cb575060206108a581946108b793369101611630565b818451938285809451938492016116a5565b810160038152030190205415159051908152f35b80fd5b50503461018457817ffffffffffffffffffffffffffffffffffffffffffffffffffffffffffffffffc3601126101845751908152602090f35b8284346108cb5760207ffffffffffffffffffffffffffffffffffffffffffffffffffffffffffffffffc3601126108cb57823590835482101561098a579060209373ffffffffffffffffffffffffffffffffffffffff92527f8a35acfbc15ff81a39ae7d344fd709f28e8600b4aa8c65c6b64bfe7fe36bd19b0154169051908152f35b806032857f4e487b71000000000000000000000000000000000000000000000000000000006024945252fd5b50503461018457817ffffffffffffffffffffffffffffffffffffffffffffffffffffffffffffffffc3601126101845760209073ffffffffffffffffffffffffffffffffffffffff600654169051908152f35b9050346105c357602090817ffffffffffffffffffffffffffffffffffffffffffffffffffffffffffffffffc3601126105bf57610a44611581565b927f97667070c54ef182b0f5858b034beac1b6f3089aa2d3188bb1e8929f4fa9b9298086526001808552828720338852855260ff838820541615610aa65786610aa273ffffffffffffffffffffffffffffffffffffffff8816611bed565b5080f35b8690610ab133611a4f565b92845191610abe836115a4565b60428352878301936060368637835115610593576030855383518210156105935790607860218501536041915b818311610b46575050506104705760486104299385936104389361046c97519687937f416363657373436f6e74726f6c3a206163636f756e74200000000000000000008c8601526103f48c82519283916037890191016116a5565b909192600f81166010811015610567577f3031323334353637383961626364656600000000000000000000000000000000901a610b838587611a0f565b53881c92801561053b577fffffffffffffffffffffffffffffffffffffffffffffffffffffffffffffffff019190610aeb565b9050346105c357817ffffffffffffffffffffffffffffffffffffffffffffffffffffffffffffffffc3601126105c3578160209360ff92610bf5611559565b903582526001865273ffffffffffffffffffffffffffffffffffffffff83832091168252855220541690519015158152f35b9050346105c357827ffffffffffffffffffffffffffffffffffffffffffffffffffffffffffffffffc3601126105c357825460ff8160081c161591828093610e5c575b8015610e45575b15610dc257507fffffffffffffffffffffffffffffffffffffffffffffffffffffffffffffff0090826001838316178655610d94575b50838052600160205282842033855260205260ff838520541615610d4a575b507fffffffffffffffffffffffff000000000000000000000000000000000000000060065416600655610cf7575080f35b60207f7f26b83ff96e1f2b6a682f133852f6798a09c465da95921460cefb3847402498917fffffffffffffffffffffffffffffffffffffffffffffffffffffffffffff00ff84541684555160018152a180f35b83805260016020528284203385526020526001838520918254161790553333847f2f8788117e7eff1d82e926ec794901d17c78024a50270940304540a733656f0d8180a438610cc6565b7fffffffffffffffffffffffffffffffffffffffffffffffffffffffffffff00001661010117845538610ca7565b60849060208551917f08c379a0000000000000000000000000000000000000000000000000000000008352820152602e60248201527f496e697469616c697a61626c653a20636f6e747261637420697320616c72656160448201527f647920696e697469616c697a65640000000000000000000000000000000000006064820152fd5b50303b158015610c715750600160ff831614610c71565b50600160ff831610610c6a565b50503461018457807ffffffffffffffffffffffffffffffffffffffffffffffffffffffffffffffffc36011261018457610ee8602092610ea7611581565b83610eb0611559565b9273ffffffffffffffffffffffffffffffffffffffff8093168152600287522091169060019160005201602052604060002054151590565b90519015158152f35b5050346101845760207ffffffffffffffffffffffffffffffffffffffffffffffffffffffffffffffffc360112610184578060209273ffffffffffffffffffffffffffffffffffffffff610f43611581565b1681526002845220549051908152f35b50503461018457807ffffffffffffffffffffffffffffffffffffffffffffffffffffffffffffffffc36011261018457611001610f8e611581565b610f96611559565b3385526005602052610fac848620541515611d4d565b73ffffffffffffffffffffffffffffffffffffffff8092168086526002602052610fe83386882060019160005201602052604060002054151590565b61102a575b501691828452600260205233908420611cbc565b50337f95ed4cfa672cdb13b87ec234fdf0b27366af2f8dc883d8b30508b2f4dde5791d8380a380f35b8552600260205261103d33858720611dd8565b5038610fed565b8284346108cb5760207ffffffffffffffffffffffffffffffffffffffffffffffffffffffffffffffffc3601126108cb5782359067ffffffffffffffff82116108cb575060206108a5819461109b93369101611630565b81016003815203019020549051908152f35b50503461018457602090817ffffffffffffffffffffffffffffffffffffffffffffffffffffffffffffffffc3601126105c35773ffffffffffffffffffffffffffffffffffffffff6110fd611581565b168352600282528083209281518093808654928381520195835280832092905b8282106111435761113f8686611135828b03836115ef565b5191829182611508565b0390f35b83548752958601956001938401939091019061111d565b8391503461018457827ffffffffffffffffffffffffffffffffffffffffffffffffffffffffffffffffc36011261018457611193611559565b903373ffffffffffffffffffffffffffffffffffffffff8316036111bc5790610620913561196d565b60849060208551917f08c379a0000000000000000000000000000000000000000000000000000000008352820152602f60248201527f416363657373436f6e74726f6c3a2063616e206f6e6c792072656e6f756e636560448201527f20726f6c657320666f722073656c6600000000000000000000000000000000006064820152fd5b9050346105c357817ffffffffffffffffffffffffffffffffffffffffffffffffffffffffffffffffc3601126105c3573590611279611559565b908284526001602052611291600182862001546116c8565b828452600160205273ffffffffffffffffffffffffffffffffffffffff81852092169182855260205260ff8185205416156112ca578380f35b8284526001602052808420828552602052832060017fffffffffffffffffffffffffffffffffffffffffffffffffffffffffffffff0082541617905533917f2f8788117e7eff1d82e926ec794901d17c78024a50270940304540a733656f0d8480a43880808380f35b9050346105c35760207ffffffffffffffffffffffffffffffffffffffffffffffffffffffffffffffffc3601126105c357816020936001923581528285522001549051908152f35b9050346105c357827ffffffffffffffffffffffffffffffffffffffffffffffffffffffffffffffffc3601126105c35760209250549051908152f35b83833461018457817ffffffffffffffffffffffffffffffffffffffffffffffffffffffffffffffffc360112610184578051918284549081815260208091019583527f8a35acfbc15ff81a39ae7d344fd709f28e8600b4aa8c65c6b64bfe7fe36bd19b92905b8282106114355761113f8686611135828b03836115ef565b83548752958601956001938401939091019061141d565b8491346105c35760207ffffffffffffffffffffffffffffffffffffffffffffffffffffffffffffffffc3601126105c357357fffffffff0000000000000000000000000000000000000000000000000000000081168091036105c357602092507f7965db0b0000000000000000000000000000000000000000000000000000000081149081156114de575b5015158152f35b7f01ffc9a700000000000000000000000000000000000000000000000000000000915014836114d7565b6020908160408183019282815285518094520193019160005b82811061152f575050505090565b835173ffffffffffffffffffffffffffffffffffffffff1685529381019392810192600101611521565b6024359073ffffffffffffffffffffffffffffffffffffffff8216820361157c57565b600080fd5b6004359073ffffffffffffffffffffffffffffffffffffffff8216820361157c57565b6080810190811067ffffffffffffffff8211176115c057604052565b7f4e487b7100000000000000000000000000000000000000000000000000000000600052604160045260246000fd5b90601f7fffffffffffffffffffffffffffffffffffffffffffffffffffffffffffffffe0910116810190811067ffffffffffffffff8211176115c057604052565b81601f8201121561157c5780359067ffffffffffffffff82116115c0576040519261168360207fffffffffffffffffffffffffffffffffffffffffffffffffffffffffffffffe0601f86011601856115ef565b8284526020838301011161157c57816000926020809301838601378301015290565b60005b8381106116b85750506000910152565b81810151838201526020016116a8565b6000818152600191602091838352604093848220338352845260ff8583205416156116f4575050505050565b6116fd33611a4f565b9285519161170a836115a4565b604283528583019360603686378351156118fd576030855383518210156118fd5790607860218501536041915b818311611832575050506117d657604861046c9386936117a09361179198519889937f416363657373436f6e74726f6c3a206163636f756e74200000000000000000008a8601526103f4815180928c6037890191016116a5565b010360288101875201856115ef565b519283927f08c379a00000000000000000000000000000000000000000000000000000000084526004840152602483019061192a565b6064848651907f08c379a000000000000000000000000000000000000000000000000000000000825280600483015260248201527f537472696e67733a20686578206c656e67746820696e73756666696369656e746044820152fd5b909192600f811660108110156118d0577f3031323334353637383961626364656600000000000000000000000000000000901a61186f8587611a0f565b5360041c9280156118a3577fffffffffffffffffffffffffffffffffffffffffffffffffffffffffffffffff019190611737565b6024827f4e487b710000000000000000000000000000000000000000000000000000000081526011600452fd5b6024837f4e487b710000000000000000000000000000000000000000000000000000000081526032600452fd5b807f4e487b7100000000000000000000000000000000000000000000000000000000602492526032600452fd5b907fffffffffffffffffffffffffffffffffffffffffffffffffffffffffffffffe0601f602093611966815180928187528780880191016116a5565b0116010190565b90600091808352600160205273ffffffffffffffffffffffffffffffffffffffff6040842092169182845260205260ff6040842054166119ac57505050565b808352600160205260408320828452602052604083207fffffffffffffffffffffffffffffffffffffffffffffffffffffffffffffff0081541690557ff6391f5c32d9c69d2a47ea670b442974b53935d1edc7fd64eb21e047a839171b339380a4565b908151811015611a20570160200190565b7f4e487b7100000000000000000000000000000000000000000000000000000000600052603260045260246000fd5b604051906060820182811067ffffffffffffffff8211176115c057604052602a8252602082016040368237825115611a2057603090538151600190811015611a2057607860218401536029905b808211611b0a575050611aac5790565b60646040517f08c379a000000000000000000000000000000000000000000000000000000000815260206004820152602060248201527f537472696e67733a20686578206c656e67746820696e73756666696369656e746044820152fd5b9091600f81166010811015611ba7577f3031323334353637383961626364656600000000000000000000000000000000901a611b468486611a0f565b5360041c918015611b79577fffffffffffffffffffffffffffffffffffffffffffffffffffffffffffffffff0190611a9c565b602460007f4e487b710000000000000000000000000000000000000000000000000000000081526011600452fd5b602460007f4e487b710000000000000000000000000000000000000000000000000000000081526032600452fd5b8054821015611a205760005260206000200190600090565b600081815260056020526040812054611cb75760045468010000000000000000811015611c8a576001810180600455811015611c5d5790826040927f8a35acfbc15ff81a39ae7d344fd709f28e8600b4aa8c65c6b64bfe7fe36bd19b015560045492815260056020522055600190565b6024827f4e487b710000000000000000000000000000000000000000000000000000000081526032600452fd5b6024827f4e487b710000000000000000000000000000000000000000000000000000000081526041600452fd5b905090565b6000828152600182016020526040902054611d4657805490680100000000000000008210156115c05782611d2f611cfa846001809601855584611bd5565b81939154907fffffffffffffffffffffffffffffffffffffffffffffffffffffffffffffffff9060031b92831b921b19161790565b905580549260005201602052604060002055600190565b5050600090565b15611d5457565b60846040517f08c379a000000000000000000000000000000000000000000000000000000000815260206004820152602760248201527f43616c6c6572206973206e6f742061206275636b6574206d616e61676572206360448201527f6f6e7472616374000000000000000000000000000000000000000000000000006064820152fd5b90600182019060009281845282602052604084205490811515600014611f2a577fffffffffffffffffffffffffffffffffffffffffffffffffffffffffffffffff91828101818111611efd57825490848201918211611ed057808203611e9b575b50505080548015611e6e57820191611e518383611bd5565b909182549160031b1b191690555582526020526040812055600190565b6024867f4e487b710000000000000000000000000000000000000000000000000000000081526031600452fd5b611ebb611eab611cfa9386611bd5565b90549060031b1c92839286611bd5565b90558652846020526040862055388080611e39565b6024887f4e487b710000000000000000000000000000000000000000000000000000000081526011600452fd5b6024877f4e487b710000000000000000000000000000000000000000000000000000000081526011600452fd5b505050509056fea164736f6c6343000814000a",
  "linkReferences": {},
  "deployedLinkReferences": {}
}