{
  "_format": "hh-sol-artifact-1",
  "contractName": "BucketFactory",
  "sourceName": "contracts/BucketFactory.sol",
  "abi": [
    {
      "anonymous": false,
      "inputs": [
        {
          "indexed": true,
          "internalType": "address",
          "name": "creator",
          "type": "address"
        },
        {
          "indexed": false,
          "internalType": "address",
          "name": "bucketManger",
          "type": "address"
        }
      ],
      "name": "CreateBucketManager",
      "type": "event"
    },
    {
      "anonymous": false,
      "inputs": [
        {
          "indexed": false,
          "internalType": "uint8",
          "name": "version",
          "type": "uint8"
        }
      ],
      "name": "Initialized",
      "type": "event"
    },
    {
      "inputs": [],
      "name": "admin",
      "outputs": [
        {
          "internalType": "address",
          "name": "",
          "type": "address"
        }
      ],
      "stateMutability": "view",
      "type": "function"
    },
    {
      "inputs": [],
      "name": "bucketRegistry",
      "outputs": [
        {
          "internalType": "address",
          "name": "",
          "type": "address"
        }
      ],
      "stateMutability": "view",
      "type": "function"
    },
    {
      "inputs": [],
      "name": "bucket_hub",
      "outputs": [
        {
          "internalType": "address",
          "name": "",
          "type": "address"
        }
      ],
      "stateMutability": "view",
      "type": "function"
    },
    {
      "inputs": [],
      "name": "callbackGasLimit",
      "outputs": [
        {
          "internalType": "uint256",
          "name": "",
          "type": "uint256"
        }
      ],
      "stateMutability": "view",
      "type": "function"
    },
    {
      "inputs": [],
      "name": "cross_chain",
      "outputs": [
        {
          "internalType": "address",
          "name": "",
          "type": "address"
        }
      ],
      "stateMutability": "view",
      "type": "function"
    },
    {
      "inputs": [
        {
          "internalType": "uint256",
          "name": "transferOutAmount",
          "type": "uint256"
        },
        {
          "internalType": "bytes32",
          "name": "_salt",
          "type": "bytes32"
        }
      ],
      "name": "deploy",
      "outputs": [
        {
          "internalType": "address",
          "name": "",
          "type": "address"
        }
      ],
      "stateMutability": "payable",
      "type": "function"
    },
    {
      "inputs": [],
      "name": "failureHandlerStrategy",
      "outputs": [
        {
          "internalType": "uint8",
          "name": "",
          "type": "uint8"
        }
      ],
      "stateMutability": "view",
      "type": "function"
    },
    {
      "inputs": [
        {
          "internalType": "bytes32",
          "name": "_salt",
          "type": "bytes32"
        }
      ],
      "name": "getManagerAddress",
      "outputs": [
        {
          "internalType": "address",
          "name": "",
          "type": "address"
        }
      ],
      "stateMutability": "view",
      "type": "function"
    },
    {
      "inputs": [],
      "name": "greenfield_executor",
      "outputs": [
        {
          "internalType": "address",
          "name": "",
          "type": "address"
        }
      ],
      "stateMutability": "view",
      "type": "function"
    },
    {
      "inputs": [
        {
          "internalType": "address",
          "name": "_bucketRegistry",
          "type": "address"
        },
        {
          "internalType": "address",
          "name": "_tokenHub",
          "type": "address"
        },
        {
          "internalType": "address",
          "name": "_cross_chain",
          "type": "address"
        },
        {
          "internalType": "address",
          "name": "_bucket_hub",
          "type": "address"
        },
        {
          "internalType": "address",
          "name": "_permission_hub",
          "type": "address"
        },
        {
          "internalType": "address",
          "name": "_greenfield_executor",
          "type": "address"
        }
      ],
      "name": "initialize",
      "outputs": [],
      "stateMutability": "nonpayable",
      "type": "function"
    },
    {
      "inputs": [],
      "name": "permission_hub",
      "outputs": [
        {
          "internalType": "address",
          "name": "",
          "type": "address"
        }
      ],
      "stateMutability": "view",
      "type": "function"
    },
    {
      "inputs": [],
      "name": "sp_address_testnet",
      "outputs": [
        {
          "internalType": "address",
          "name": "",
          "type": "address"
        }
      ],
      "stateMutability": "view",
      "type": "function"
    },
    {
      "inputs": [],
      "name": "tokenHub",
      "outputs": [
        {
          "internalType": "address",
          "name": "",
          "type": "address"
        }
      ],
      "stateMutability": "view",
      "type": "function"
    },
    {
      "inputs": [],
      "name": "version",
      "outputs": [
        {
          "internalType": "string",
          "name": "",
          "type": "string"
        }
      ],
      "stateMutability": "view",
      "type": "function"
    }
  ],
  "bytecode": "0x6080806040523461001657613f7c908161001c8239f35b600080fdfe604060808152600490813610156200001657600080fd5b600091823560e01c9081621699f71462000a7c578163020377241462000865578163125e5574146200081057816324f7469714620007d157816351c4c05e146200077b57816354fd4d5014620005dd5781635d519f431462000588578163874ec80e1462000533578163c0ca327014620004dc578163cc2a9a5b146200020b57508063db080d2014620001b7578063e1d20ebb1462000163578063ee65c19d14620001225763f851a44014620000cb57600080fd5b346200011e57817ffffffffffffffffffffffffffffffffffffffffffffffffffffffffffffffffc3601126200011e5760209073ffffffffffffffffffffffffffffffffffffffff600a54169051908152f35b5080fd5b50346200011e57817ffffffffffffffffffffffffffffffffffffffffffffffffffffffffffffffffc3601126200011e5760209060ff600854169051908152f35b50346200011e57817ffffffffffffffffffffffffffffffffffffffffffffffffffffffffffffffffc3601126200011e5760209073ffffffffffffffffffffffffffffffffffffffff600654169051908152f35b50346200011e57817ffffffffffffffffffffffffffffffffffffffffffffffffffffffffffffffffc3601126200011e5760209073ffffffffffffffffffffffffffffffffffffffff600354169051908152f35b91905034620004d85760c07ffffffffffffffffffffffffffffffffffffffffffffffffffffffffffffffffc360112620004d85781359073ffffffffffffffffffffffffffffffffffffffff928383168303620004d357602435848116809103620004d35760443594808616809603620004d35760643592818416809403620004d357608435828116809103620004d35760a435928316809303620004d35788549460ff8660081c161595868097620004c5575b8015620004ac575b1562000429578660017fffffffffffffffffffffffffffffffffffffffffffffffffffffffffffffff008316178c55620003fa575b5075ffffffffffffffffffffffffffffffffffffffff00008a549860101b1698897fffffffffffffffffffff0000000000000000000000000000000000000000ffff8a16178b557fffffffffffffffffffffffff000000000000000000000000000000000000000095866001541617600155856002541617600255846003541617600355838254161790558160065416176006553390600a541617600a55620003a3578380f35b7f7f26b83ff96e1f2b6a682f133852f6798a09c465da95921460cefb3847402498927fffffffffffffffffffff000000000000000000000000000000000000000000ff602093161784555160018152a13880808380f35b7fffffffffffffffffffffffffffffffffffffffffffffffffffffffffffff000016610101178a5538620002fc565b60848460208a51917f08c379a0000000000000000000000000000000000000000000000000000000008352820152602e60248201527f496e697469616c697a61626c653a20636f6e747261637420697320616c72656160448201527f647920696e697469616c697a65640000000000000000000000000000000000006064820152fd5b50303b158015620002c75750600160ff821614620002c7565b50600160ff821610620002bf565b600080fd5b8280fd5b8284346200053057807ffffffffffffffffffffffffffffffffffffffffffffffffffffffffffffffffc36011262000530575073ffffffffffffffffffffffffffffffffffffffff60209254169051908152f35b80fd5b5050346200011e57817ffffffffffffffffffffffffffffffffffffffffffffffffffffffffffffffffc3601126200011e5760209073ffffffffffffffffffffffffffffffffffffffff600154169051908152f35b5050346200011e57817ffffffffffffffffffffffffffffffffffffffffffffffffffffffffffffffffc3601126200011e5760209073ffffffffffffffffffffffffffffffffffffffff600554169051908152f35b5050346200011e57817ffffffffffffffffffffffffffffffffffffffffffffffffffffffffffffffffc3601126200011e578051828160095494620006228662000adb565b9586835260209687918285019560019182811690816000146200071f5750600114620006a6575b50505050916200067f601f927fffffffffffffffffffffffffffffffffffffffffffffffffffffffffffffffe094038562000b75565b6200069d855196879581875251928380928801528787019062000bb7565b01168101030190f35b929350600983527f6e1540171b6c0c960b71a7020d9f60077f6af931a8bbf590da0223dacf75c7af5b828410620007085750505082010185827fffffffffffffffffffffffffffffffffffffffffffffffffffffffffffffffe0601f62000649565b8054888501860152879550928401928101620006cf565b7fffffffffffffffffffffffffffffffffffffffffffffffffffffffffffffff00168852505050151560051b830101905085827fffffffffffffffffffffffffffffffffffffffffffffffffffffffffffffffe0601f62000649565b5050346200011e57817ffffffffffffffffffffffffffffffffffffffffffffffffffffffffffffffffc3601126200011e5773ffffffffffffffffffffffffffffffffffffffff6020925460101c169051908152f35b5050346200011e57817ffffffffffffffffffffffffffffffffffffffffffffffffffffffffffffffffc3601126200011e576020906007549051908152f35b5050346200011e57817ffffffffffffffffffffffffffffffffffffffffffffffffffffffffffffffffc3601126200011e5760209073ffffffffffffffffffffffffffffffffffffffff600254169051908152f35b918091507ffffffffffffffffffffffffffffffffffffffffffffffffffffffffffffffffc360112620004d857813591602435620008a38162000d08565b9073ffffffffffffffffffffffffffffffffffffffff918683815460101c1691823b156200011e576024859183895195869485937f972c06bc000000000000000000000000000000000000000000000000000000008552168a8401525af1801562000a725762000a5c575b5081865460101c16826001541683600254168460035416858754169186600654169389519561311c8088019088821067ffffffffffffffff83111762000a30579188979593916200096997959362000e548a39339062000bdc565b039087f5801562000a2657169282518481527f64ed69376ad98b230ed33e26228fe7a1c36b8fd4284116be3604fed8e13ca21760203392a280620009b2575b6020848451908152f35b833b1562000a22578251917feeef630c000000000000000000000000000000000000000000000000000000008352820152838160248134875af1801562000a185762000a00575b80620009a8565b62000a0c849162000b31565b620004d85782620009f9565b82513d86823e3d90fd5b8480fd5b83513d87823e3d90fd5b60248f60418e7f4e487b7100000000000000000000000000000000000000000000000000000000835252fd5b62000a6a9096919662000b31565b94386200090e565b85513d89823e3d90fd5b828434620005305760207ffffffffffffffffffffffffffffffffffffffffffffffffffffffffffffffffc36011262000530575073ffffffffffffffffffffffffffffffffffffffff62000ad36020933562000d08565b915191168152f35b90600182811c9216801562000b26575b602083101462000af757565b7f4e487b7100000000000000000000000000000000000000000000000000000000600052602260045260246000fd5b91607f169162000aeb565b67ffffffffffffffff811162000b4657604052565b7f4e487b7100000000000000000000000000000000000000000000000000000000600052604160045260246000fd5b90601f7fffffffffffffffffffffffffffffffffffffffffffffffffffffffffffffffe0910116810190811067ffffffffffffffff82111762000b4657604052565b60005b83811062000bcb5750506000910152565b818101518382015260200162000bba565b959196939473ffffffffffffffffffffffffffffffffffffffff8096818096818096168b528160209c168c8c01521660408a01521660608801521660808601521660a08401521660c0820152610100908160e082015260009260095462000c438162000adb565b8094840152600190818116908160001462000cc7575060011462000c69575b5050505090565b600960009081529394507f6e1540171b6c0c960b71a7020d9f60077f6af931a8bbf590da0223dacf75c7af5b85851062000cb157505050610120925001013880808062000c62565b8054858501610120015293820193810162000c95565b9550505050907fffffffffffffffffffffffffffffffffffffffffffffffffffffffffffffff00610120931683830152151560051b01013880808062000c62565b60405190602061311c62000d1f8282018562000b75565b8084528184019062000e54823962000de062000ded8373ffffffffffffffffffffffffffffffffffffffff968760005460101c16886001541662000db68a600254169162000d898c600354168d80600454169060065416916040519687958b870199338b62000bdc565b037fffffffffffffffffffffffffffffffffffffffffffffffffffffffffffffffe0810183528262000b75565b60405195869362000dd0868601998a925192839162000bb7565b8401915180938684019062000bb7565b0103808452018262000b75565b519020604051918201927fff0000000000000000000000000000000000000000000000000000000000000084523060601b602184015260358301526055820152605581526080810181811067ffffffffffffffff82111762000b4657604052519020169056fe60808060405234620002a6576200311c8038038091620000208285620003c2565b833981019061010081830312620002a6576200003c81620003e6565b906200004b60208201620003e6565b6200005960408301620003e6565b6200006760608401620003e6565b6200007560808501620003e6565b916200008460a08601620003e6565b936200009360c08701620003e6565b60e087015190966001600160401b038211620002a6570188601f82011215620002a6578051906001600160401b038211620002845760405199620000e2601f8401601f19166020018c620003c2565b828b5260208383010111620002a65760005b828110620003ad57505060206000918a0101526200011233620003fb565b600180546001600160a01b03199081166001600160a01b039384161790915560028054821693831693909317909255600380548316938216939093179092556004805482169383169390931790925560058054831693821693909317909255600680549091169290911691909117905581516001600160401b0381116200028457600754600181811c91168015620003a2575b60208210146200038c57601f811162000322575b50602092601f8211600114620002b75792819293600092620002ab575b50508160011b916000199060031b1c1916176007555b6001546000546001600160a01b03918216929116823b15620002a657604051632fa1b6d160e11b815260048101919091526001600160a01b0382166024820152916000908390604490829084905af180156200029a5762000267575b6200025390620003fb565b30600b55604051612cd99081620004438239f35b6001600160401b0382116200028457620002539160405262000248565b634e487b7160e01b600052604160045260246000fd5b6040513d6000823e3d90fd5b600080fd5b015190503880620001d6565b601f19821693600760005260206000209160005b868110620003095750836001959610620002ef575b505050811b01600755620001ec565b015160001960f88460031b161c19169055388080620002e0565b91926020600181928685015181550194019201620002cb565b60076000527fa66cc928b5edb82af9bd49922954155ab7b0942694bea4ce44661d9a8736c688601f830160051c8101916020841062000381575b601f0160051c01905b818110620003745750620001b9565b6000815560010162000365565b90915081906200035c565b634e487b7160e01b600052602260045260246000fd5b90607f1690620001a5565b60208183018101518c830182015201620000f4565b601f909101601f19168101906001600160401b038211908210176200028457604052565b51906001600160a01b0382168203620002a657565b600080546001600160a01b039283166001600160a01b03198216811783559216907f8be0079c531659141344cd1fd0a4f28419497f9722a3daafe3b4186f6b6457e09080a356fe6080604052600436101561001257600080fd5b6000803560e01c806309f4233a146119ae578063125e557414611e5c5780632ecc272e14611e0c578063459af3aa14611d7d57806351c4c05e14611d2b57806354fd4d5014611c1e5780636932cf8114611baf578063715018a614611b135780638388012214611ad9578063874ec80e14611a875780638da5cb5b14611a36578063903b31f6146119ae578063c0ca32701461195c578063cd66634c14611812578063db080d20146117c0578063de6e5245146115af578063e1d20ebb1461155d578063e463b49d146111c3578063edabb0a314611189578063eeef630c14610f82578063f2fde38b14610dd8578063f3b7c58914610ac5578063f95e39bb146101615763ffcc22fa1461012557600080fd5b3461015e57807ffffffffffffffffffffffffffffffffffffffffffffffffffffffffffffffffc36011261015e57602060405160078152f35b80fd5b5060a07ffffffffffffffffffffffffffffffffffffffffffffffffffffffffffffffffc36011261015e5760043567ffffffffffffffff8111610ac1576101ac903690600401611fbc565b9060243567ffffffffffffffff8111610ac15736602382011215610ac1576101de903690602481600401359101611f57565b906003606435101561015e576084359073ffffffffffffffffffffffffffffffffffffffff82168203610abc57610213612191565b600360ff604051602081885161022c8183858d01612094565b81016008815203019020541661024181611fda565b141580610a86575b15610a025761025784612295565b9273ffffffffffffffffffffffffffffffffffffffff60015416602060405180927fae7c86d500000000000000000000000000000000000000000000000000000000825282600483015281806102b0602482018b6120b7565b03915afa9081156109f75783916109d8575b506040519061031660338388516102e0816020840160208d01612094565b81017f3a6275636b6574206861732063726561746564000000000000000000000000006020820152036013810185520183611f16565b61099657506040516020808201526103618161033560408201896120b7565b037fffffffffffffffffffffffffffffffffffffffffffffffffffffffffffffffe08101835282611f16565b61036c604435612b92565b509092805161072b575b50508134106106cd576040519161038c83611efa565b8383526040519461039c86611efa565b848652604051918261014081011067ffffffffffffffff6101408501111761069e576105ea9660209573ffffffffffffffffffffffffffffffffffffffff6105b29461014087016040523087528b89880152600160408801523060608801521660808601528760a0860152600160c086015260e0850152633e8000006101008501526101208401526040519361043185611eae565b30855233868601526104486064356040870161252e565b606085015273ffffffffffffffffffffffffffffffffffffffff6004541692604051978895869485937fb1719fb90000000000000000000000000000000000000000000000000000000085526060600486015273ffffffffffffffffffffffffffffffffffffffff81511660648601526104d28a82015161014060848801526101a48701906120b7565b60408201516104e081611fda565b60a487015273ffffffffffffffffffffffffffffffffffffffff60608301511660c487015273ffffffffffffffffffffffffffffffffffffffff60808301511660e487015267ffffffffffffffff60a08301511661010487015263ffffffff60c08301511661012487015261012061058960e0840151927fffffffffffffffffffffffffffffffffffffffffffffffffffffffffffffff9c93848a8303016101448b01526120b7565b9267ffffffffffffffff61010082015116610164890152015190868303016101848701526120b7565b9060443560248501527ffffffffffffffffffffffffffffffffffffffffffffffffffffffffffffffffc84830301604485015261253a565b03925af190811561069257506106619361061a92602092610665575b508160405193828580945193849201612094565b8101600881520301902060037fffffffffffffffffffffffffffffffffffffffffffffffffffffffffffffff008254161790556040519182916020835260208301906120b7565b0390f35b61068490833d851161068b575b61067c8183611f16565b810190612210565b5038610606565b503d610672565b604051903d90823e3d90fd5b7f4e487b7100000000000000000000000000000000000000000000000000000000600052604160045260246000fd5b60646040517f08c379a000000000000000000000000000000000000000000000000000000000815260206004820152602060248201527f637265617465206275636b657420696e73756666696369656e742076616c75656044820152fd5b60405161073781611ede565b6001815260203681830137600961074d82612514565b526040519161075b83611ede565b60018352865b60208110610983575061077383612514565b5261077d82612514565b5073ffffffffffffffffffffffffffffffffffffffff6006541690836040519384927f608d60eb000000000000000000000000000000000000000000000000000000008452604484016040600486015281518091526020606486019201908b5b818110610964575050507ffffffffffffffffffffffffffffffffffffffffffffffffffffffffffffffffc848203016024850152815180825260208201916020808360051b8301019401928c915b8383106109155750505050506020939183809203925af1801561090a579061085a92916108eb575b5083612521565b3410610867573880610376565b60846040517f08c379a000000000000000000000000000000000000000000000000000000000815260206004820152602f60248201527f637265617465206275636b657420696e73756666696369656e742076616c756560448201527f207769746820657865637574696f6e00000000000000000000000000000000006064820152fd5b6109039060203d60201161068b5761067c8183611f16565b5038610853565b6040513d87823e3d90fd5b92955092955092602080610953837fffffffffffffffffffffffffffffffffffffffffffffffffffffffffffffffe0866001960301875289516120b7565b97019301930187959389959261082b565b825160ff168452889650899550602093840193909201916001016107dd565b6060602082860181019190915201610761565b6109d4906040519182917f08c379a00000000000000000000000000000000000000000000000000000000083526020600484015260248301906120b7565b0390fd5b6109f1915060203d60201161068b5761067c8183611f16565b386102c2565b6040513d85823e3d90fd5b60846040517f08c379a000000000000000000000000000000000000000000000000000000000815260206004820152602860248201527f546865206275636b6574206f662074686520676976656e206e616d652068617360448201527f20657869737465640000000000000000000000000000000000000000000000006064820152fd5b50600160ff6040516020818851610aa08183858d01612094565b810160088152030190205416610ab581611fda565b1415610249565b600080fd5b5080fd5b503461015e577ffffffffffffffffffffffffffffffffffffffffffffffffffffffffffffffffc604081360112610ac15767ffffffffffffffff90600435828111610dd457610b18903690600401612160565b919060243590848211610dd057610b3460049236908401612160565b610b3f929192612191565b73ffffffffffffffffffffffffffffffffffffffff604081600354168151968780927f54912a970000000000000000000000000000000000000000000000000000000082525afa948515610dc5578995610d93575b5060069792979594939195541693604051967f608d60eb0000000000000000000000000000000000000000000000000000000088528060448901604060048b0152526064880198908a905b808210610d6257505050908694939291858903016024860152858852602097889687820191888260051b82010194848d925b848410610cba57505050505050509083809203925af19081156109f7578391610c9d575b5015610c3f575080f35b606490604051907f08c379a00000000000000000000000000000000000000000000000000000000082526004820152600f60248201527f6661696c20746f206578656375746500000000000000000000000000000000006044820152fd5b610cb49150823d841161068b5761067c8183611f16565b38610c35565b809396999b50877fffffffffffffffffffffffffffffffffffffffffffffffffffffffffffffffe09295989396999b500301875287357fffffffffffffffffffffffffffffffffffffffffffffffffffffffffffffffe184360301811215610d5e5783018c8101919035858111610d5a578036038313610d5a57610d438e92839260019561258e565b99019701940190928b999795928b99979594610c11565b8e80fd5b8d80fd5b90919499859894969798359060ff8216809203610abc5790815260209081019a949897969495019160010190610bdf565b610db691955060403d604011610dbe575b610dae8183611f16565b8101906125cd565b509338610b94565b503d610da4565b6040513d8b823e3d90fd5b8580fd5b8380fd5b503461015e5760207ffffffffffffffffffffffffffffffffffffffffffffffffffffffffffffffffc36011261015e5760043573ffffffffffffffffffffffffffffffffffffffff90818116809103610efa57610e33612191565b8015610efe578290815492817fffffffffffffffffffffffff0000000000000000000000000000000000000000828616951617835581847f8be0079c531659141344cd1fd0a4f28419497f9722a3daafe3b4186f6b6457e08580a36001541692833b15610efa576044908360405195869485937f5f436da2000000000000000000000000000000000000000000000000000000008552600485015260248401525af18015610eef57610ee3575080f35b610eec90611eca565b80f35b6040513d84823e3d90fd5b8280fd5b60846040517f08c379a000000000000000000000000000000000000000000000000000000000815260206004820152602660248201527f4f776e61626c653a206e6577206f776e657220697320746865207a65726f206160448201527f64647265737300000000000000000000000000000000000000000000000000006064820152fd5b506020807ffffffffffffffffffffffffffffffffffffffffffffffffffffffffffffffffc360112610ac157600435600473ffffffffffffffffffffffffffffffffffffffff604081600354168151938480927f54912a970000000000000000000000000000000000000000000000000000000082525afa90811561090a5785928692611165575b5061101e826110198587612521565b612521565b34036111075761103b859392611019604493600254169487612521565b9360405194859384927f76890c5800000000000000000000000000000000000000000000000000000000845230600485015260248401525af19081156109f75783916110ea575b501561108c575080f35b606490604051907f08c379a00000000000000000000000000000000000000000000000000000000082526004820152601660248201527f6661696c20746f207472616e7366657220746f6b656e000000000000000000006044820152fd5b6111019150823d841161068b5761067c8183611f16565b38611082565b606485604051907f08c379a00000000000000000000000000000000000000000000000000000000082526004820152601460248201527f6d73672e76616c7565206e6f7420656e6f7567680000000000000000000000006044820152fd5b909250611181915060403d604011610dbe57610dae8183611f16565b90913861100a565b503461015e57807ffffffffffffffffffffffffffffffffffffffffffffffffffffffffffffffffc36011261015e57602060405160028152f35b507ffffffffffffffffffffffffffffffffffffffffffffffffffffffffffffffffc608081360112610ac15767ffffffffffffffff600435818111610dd457611210903690600401611fbc565b90602435908111610dd457611229903690600401612013565b919092606435936003851015610dd057611241612191565b60405193600160ff8686516020988161125e8b9383858d01612094565b81016008815203019020541661127381611fda565b036114d957611283368284611f57565b85815191012093848852600a8652600360ff60408a2054166112a481611fda565b1415806114b7575b15611459576113006112ce9160405192839160408a84015260608301906120b7565b876040830152037fffffffffffffffffffffffffffffffffffffffffffffffffffffffffffffffe08101835282611f16565b6113216040519761131089611eae565b30895233888a01526040890161252e565b6060870152611331604435612b92565b5050908134106113fc579185939161139e936113ad73ffffffffffffffffffffffffffffffffffffffff60055416946040519a8b97889687957fb4867d4700000000000000000000000000000000000000000000000000000000875260406004880152604487019161258e565b9184830301602485015261253a565b03925af19283156113f157600a936113d4575b50835252610eec60ff604083205416611fda565b6113ea90833d851161068b5761067c8183611f16565b50386113c0565b6040513d86823e3d90fd5b606486604051907f08c379a000000000000000000000000000000000000000000000000000000000825280600483015260248201527f63726561746520706f6c69637920696e73756666696369656e742076616c75656044820152fd5b606486604051907f08c379a00000000000000000000000000000000000000000000000000000000082526004820152601660248201527f54686520706f6c696379206861732063726561746564000000000000000000006044820152fd5b50848852600a8652600160ff60408a2054166114d281611fda565b14156112ac565b608485604051907f08c379a00000000000000000000000000000000000000000000000000000000082526004820152602f60248201527f546865206275636b6574206f662074686520676976656e20616e64206e616d6560448201527f206973206e6f74206372656174656400000000000000000000000000000000006064820152fd5b503461015e57807ffffffffffffffffffffffffffffffffffffffffffffffffffffffffffffffffc36011261015e57602073ffffffffffffffffffffffffffffffffffffffff60065416604051908152f35b503461015e5760207ffffffffffffffffffffffffffffffffffffffffffffffffffffffffffffffffc36011261015e576004357fffffffffffffffffffffffffffffffffffffffff00000000000000000000000081168103610ac1576040519061161882611ede565b601082527f30313233343536373839616263646566000000000000000000000000000000006020830152604051916060830183811067ffffffffffffffff82111761179357604052602883526040366020850137835b6014811061168c5760405160208082528190610661908201876120b7565b600f83821a7fff00000000000000000000000000000000000000000000000000000000000000806116c3600484901c851687612284565b51169260019285841b947f7fffffffffffffffffffffffffffffffffffffffffffffffffffffffffffffff87168703611766579061171092918b1a611708878c612284565b531686612284565b5116908201809211611739579061172e6117349392881a9187612284565b53612228565b61166e565b6024877f4e487b710000000000000000000000000000000000000000000000000000000081526011600452fd5b60248b7f4e487b710000000000000000000000000000000000000000000000000000000081526011600452fd5b6024857f4e487b710000000000000000000000000000000000000000000000000000000081526041600452fd5b503461015e57807ffffffffffffffffffffffffffffffffffffffffffffffffffffffffffffffffc36011261015e57602073ffffffffffffffffffffffffffffffffffffffff60045416604051908152f35b503461015e576020807ffffffffffffffffffffffffffffffffffffffffffffffffffffffffffffffffc360112610ac157600435600954811015610efa57611859906120fa565b611930576040518381949083549061187082612041565b948585526001928784821691826000146118ed5750506001146118b1575b50505061189d92500383611f16565b6106616040519282849384528301906120b7565b869350819291528282205b8583106118d557505061189d935082010138808061188e565b805483890185015287945086939092019181016118bc565b925094505061189d9592507fffffffffffffffffffffffffffffffffffffffffffffffffffffffffffffff0091501682840152151560051b82010138808061188e565b6024837f4e487b7100000000000000000000000000000000000000000000000000000000815280600452fd5b503461015e57807ffffffffffffffffffffffffffffffffffffffffffffffffffffffffffffffffc36011261015e57602073ffffffffffffffffffffffffffffffffffffffff60055416604051908152f35b503461015e5760207ffffffffffffffffffffffffffffffffffffffffffffffffffffffffffffffffc36011261015e576004359067ffffffffffffffff821161015e57602060ff611a1982611a063660048801611fbc565b8160405193828580945193849201612094565b81016008815203019020541660405190611a3281611fda565b8152f35b503461015e57807ffffffffffffffffffffffffffffffffffffffffffffffffffffffffffffffffc36011261015e5773ffffffffffffffffffffffffffffffffffffffff6020915416604051908152f35b503461015e57807ffffffffffffffffffffffffffffffffffffffffffffffffffffffffffffffffc36011261015e57602073ffffffffffffffffffffffffffffffffffffffff60025416604051908152f35b503461015e57807ffffffffffffffffffffffffffffffffffffffffffffffffffffffffffffffffc36011261015e57602060405160048152f35b503461015e57807ffffffffffffffffffffffffffffffffffffffffffffffffffffffffffffffffc36011261015e57611b4a612191565b8073ffffffffffffffffffffffffffffffffffffffff81547fffffffffffffffffffffffff000000000000000000000000000000000000000081168355167f8be0079c531659141344cd1fd0a4f28419497f9722a3daafe3b4186f6b6457e08280a380f35b503461015e5760207ffffffffffffffffffffffffffffffffffffffffffffffffffffffffffffffffc36011261015e576004359067ffffffffffffffff821161015e57610661611c0a611c053660048601611fbc565b612295565b6040519182916020835260208301906120b7565b503461015e57807ffffffffffffffffffffffffffffffffffffffffffffffffffffffffffffffffc36011261015e576040519080600754611c5e81612041565b80855291600191808316908115611ce35750600114611c88575b61066185611c0a81870382611f16565b9250600783527fa66cc928b5edb82af9bd49922954155ab7b0942694bea4ce44661d9a8736c6885b828410611ccb575050508101602001611c0a82610661611c78565b80546020858701810191909152909301928101611cb0565b86955061066196935060209250611c0a9491507fffffffffffffffffffffffffffffffffffffffffffffffffffffffffffffff001682840152151560051b8201019293611c78565b503461015e57807ffffffffffffffffffffffffffffffffffffffffffffffffffffffffffffffffc36011261015e57602073ffffffffffffffffffffffffffffffffffffffff60015416604051908152f35b503461015e5760a07ffffffffffffffffffffffffffffffffffffffffffffffffffffffffffffffffc36011261015e5760043563ffffffff81168103610ac15760243560ff81168103610efa576044359060ff82168203610dd4576084359267ffffffffffffffff8411611e0857611dfc610eec943690600401612013565b939092606435926125e3565b8480fd5b503461015e5760207ffffffffffffffffffffffffffffffffffffffffffffffffffffffffffffffffc36011261015e5760ff60406020926004358152600a845220541660405190611a3281611fda565b503461015e57807ffffffffffffffffffffffffffffffffffffffffffffffffffffffffffffffffc36011261015e57602073ffffffffffffffffffffffffffffffffffffffff60035416604051908152f35b6080810190811067ffffffffffffffff82111761069e57604052565b67ffffffffffffffff811161069e57604052565b6040810190811067ffffffffffffffff82111761069e57604052565b6020810190811067ffffffffffffffff82111761069e57604052565b90601f7fffffffffffffffffffffffffffffffffffffffffffffffffffffffffffffffe0910116810190811067ffffffffffffffff82111761069e57604052565b92919267ffffffffffffffff821161069e5760405191611f9f60207fffffffffffffffffffffffffffffffffffffffffffffffffffffffffffffffe0601f8401160184611f16565b829481845281830111610abc578281602093846000960137010152565b9080601f83011215610abc57816020611fd793359101611f57565b90565b60041115611fe457565b7f4e487b7100000000000000000000000000000000000000000000000000000000600052602160045260246000fd5b9181601f84011215610abc5782359167ffffffffffffffff8311610abc5760208381860195010111610abc57565b90600182811c9216801561208a575b602083101461205b57565b7f4e487b7100000000000000000000000000000000000000000000000000000000600052602260045260246000fd5b91607f1691612050565b60005b8381106120a75750506000910152565b8181015183820152602001612097565b907fffffffffffffffffffffffffffffffffffffffffffffffffffffffffffffffe0601f6020936120f381518092818752878088019101612094565b0116010190565b6009548110156121315760096000527f6e1540171b6c0c960b71a7020d9f60077f6af931a8bbf590da0223dacf75c7af0190600090565b7f4e487b7100000000000000000000000000000000000000000000000000000000600052603260045260246000fd5b9181601f84011215610abc5782359167ffffffffffffffff8311610abc576020808501948460051b010111610abc57565b73ffffffffffffffffffffffffffffffffffffffff6000541633036121b257565b60646040517f08c379a000000000000000000000000000000000000000000000000000000000815260206004820152602060248201527f4f776e61626c653a2063616c6c6572206973206e6f7420746865206f776e65726044820152fd5b90816020910312610abc57518015158103610abc5790565b7fffffffffffffffffffffffffffffffffffffffffffffffffffffffffffffffff81146122555760010190565b7f4e487b7100000000000000000000000000000000000000000000000000000000600052601160045260246000fd5b908151811015612131570160200190565b805160128110908161250a575b50156124865760005b8151811015612482577fff00000000000000000000000000000000000000000000000000000000000000806122e08385612284565b5116907f61000000000000000000000000000000000000000000000000000000000000008210159182612457575b5081156123eb575b81156123b5575b50156123315761232c90612228565b6122ab565b60846040517f08c379a000000000000000000000000000000000000000000000000000000000815260206004820152603f60248201527f6275636b6574206e616d652063616e206f6e6c7920696e636c756465206c6f7760448201527f657263617365206c6574746572732c206e756d626572732c20636f6d6d6173006064820152fd5b7f2c0000000000000000000000000000000000000000000000000000000000000091506123e28385612284565b5116143861231d565b8091506123f88385612284565b51167f3000000000000000000000000000000000000000000000000000000000000000811015908161242c575b5090612316565b7f39000000000000000000000000000000000000000000000000000000000000009150111538612425565b7f7a00000000000000000000000000000000000000000000000000000000000000101591503861230e565b5090565b60846040517f08c379a000000000000000000000000000000000000000000000000000000000815260206004820152602260248201527f6c656e677468206f66206e616d652073686f756c64203c20313820616e64203e60448201527f20300000000000000000000000000000000000000000000000000000000000006064820152fd5b90501515386122a2565b8051156121315760200190565b9190820180921161225557565b6003821015611fe45752565b9073ffffffffffffffffffffffffffffffffffffffff80835116825260208301511660208201526040820151916003831015611fe4576060608091611fd794604085015201519181606082015201906120b7565b601f82602094937fffffffffffffffffffffffffffffffffffffffffffffffffffffffffffffffe0938186528686013760008582860101520116010190565b9190826040910312610abc576020825192015190565b929391909473ffffffffffffffffffffffffffffffffffffffff956004928784541633148015612b85575b15612b275760ff6002911603612b1e5760ff168281036129b957508201946020928381880312610abc5780359067ffffffffffffffff97888311610abc5763ffffffff9261265c9201611fbc565b9416958661293f57604051848187516126788183858c01612094565b8101600881520301902090600191827fffffffffffffffffffffffffffffffffffffffffffffffffffffffffffffff00825416179055600954680100000000000000008110156128e45780836126d192016009556120fa565b9190916129125786519081116128e4576126eb8254612041565b601f811161289b575b508086601f82116001146127ff576000916127f4575b507fffffffffffffffffffffffffffffffffffffffffffffffffffffffffffffffff82851b9260031b1c19161790555b541690813b15610abc576000916040918383518098819582947fc27bcafd000000000000000000000000000000000000000000000000000000008452830152612786604483018a6120b7565b90602483015203925af19283156127e8577f4e4b6b92399016efa0a71fe6d8bc4a40adff3ee42227f3cb75b25ade6c70569e936127d9575b505b6127d46040519282849384528301906120b7565b0390a2565b6127e290611eca565b386127be565b6040513d6000823e3d90fd5b90508701513861270a565b7fffffffffffffffffffffffffffffffffffffffffffffffffffffffffffffffe08593169084600052886000209160005b8a8c83831061288657505050831161284f575b5050811b01905561273a565b8901517fffffffffffffffffffffffffffffffffffffffffffffffffffffffffffffffff60f88460031b161c191690553880612843565b84015185558896909401939283019201612830565b6000838152878120601f840160051c8101928985106128da575b601f0160051c019185905b8381106128cf575050506126f4565b8281550185906128c0565b90925082906128b5565b6041857f4e487b71000000000000000000000000000000000000000000000000000000006000525260246000fd5b6000857f4e487b710000000000000000000000000000000000000000000000000000000082525260246000fd5b5050507f4e4b6b92399016efa0a71fe6d8bc4a40adff3ee42227f3cb75b25ade6c70569e9250600184036127c057604051818184516129818183858901612094565b8101600881520301902060027fffffffffffffffffffffffffffffffffffffffffffffffffffffffffffffff008254161790556127c0565b92955092935090600703612ac057508201604083820312610abc5782359067ffffffffffffffff8211610abc5763ffffffff6020612a1d612a77937f3d3a7bee70b0de1210c2b8456f2aaf1d1910bf6f85023610a63bb86441f292a1958801611fbc565b9501359316938415600014612a7c5783600052600a602052604060002060017fffffffffffffffffffffffffffffffffffffffffffffffffffffffffffffff008254161790556040519182916020835260208301906120b7565b0390a3565b60018503611c0a5783600052600a602052604060002060027fffffffffffffffffffffffffffffffffffffffffffffffffffffffffffffff00825416179055611c0a565b6064906020604051917f08c379a0000000000000000000000000000000000000000000000000000000008352820152601060248201527f496e76616c6964207265736f75726365000000000000000000000000000000006044820152fd5b50505050505050565b6064846020604051917f08c379a0000000000000000000000000000000000000000000000000000000008352820152600e60248201527f496e76616c69642063616c6c65720000000000000000000000000000000000006044820152fd5b508760055416331461260e565b9073ffffffffffffffffffffffffffffffffffffffff60035416906040928351937f54912a970000000000000000000000000000000000000000000000000000000085528085600481875afa938415612cc1576000958695612c97575b50602060009160048451809481937fbf9032470000000000000000000000000000000000000000000000000000000083525af1918215612c8d5750600091612c5c575b50612c3d8486612521565b9181810291818304149015171561225557612c5791612521565b929190565b906020823d8211612c85575b81612c7560209383611f16565b8101031261015e57505138612c32565b3d9150612c68565b513d6000823e3d90fd5b602096506000919550612cb690833d8511610dbe57610dae8183611f16565b969096959150612bef565b50513d6000823e3d90fdfea164736f6c6343000814000aa164736f6c6343000814000a",
  "linkReferences": {},
  "deployedLinkReferences": {}
}